{
  "contractName": "Example",
  "abi": [
    {
      "constant": true,
      "inputs": [],
      "name": "add",
      "outputs": [
        {
          "internalType": "uint256",
          "name": "",
          "type": "uint256"
        }
      ],
      "payable": false,
      "stateMutability": "view",
      "type": "function"
    },
    {
      "constant": true,
      "inputs": [],
      "name": "sub",
      "outputs": [
        {
          "internalType": "uint256",
          "name": "",
          "type": "uint256"
        }
      ],
      "payable": false,
      "stateMutability": "view",
      "type": "function"
    }
  ],
  "bytecode": "0x60806040526023600055600a60015534801561001a57600080fd5b506101e68061002a6000396000f3fe608060405234801561001057600080fd5b50600436106100365760003560e01c80634f2be91f1461003b578063c54124be14610059575b600080fd5b610043610077565b6040518082815260200191505060405180910390f35b610061610114565b6040518082815260200191505060405180910390f35b600073__Math__________________________________63771602f76000546001546040518363ffffffff1660e01b8152600401808381526020018281526020019250505060206040518083038186803b1580156100d457600080fd5b505af41580156100e8573d6000803e3d6000fd5b505050506040513d60208110156100fe57600080fd5b8101908080519060200190929190505050905090565b600073__Math__________________________________63b67d77c56000546001546040518363ffffffff1660e01b8152600401808381526020018281526020019250505060206040518083038186803b15801561017157600080fd5b505af4158015610185573d6000803e3d6000fd5b505050506040513d602081101561019b57600080fd5b810190808051906020019092919050505090509056fea265627a7a72315820e22dc04f939b6d61a5e35fbe8d70595dc7fb2160fdf2d628d6b33bfd90ee9b0e64736f6c63430005100032",
  "source": "pragma solidity >=0.4.22 <0.7.0;\nimport {Math} from \"./Math.sol\";\n\ncontract Example {\n\n    uint a = 35;\n    uint b = 10;\n\n    function add() public view returns (uint){\n        return Math.add(a,b);\n    }\n\n    function sub() public view returns(uint){\n        return Math.sub(a,b);\n    }\n}\n",
  "sourcePath": "/Users/nam/Desktop/ether-basic/contracts/Example.sol",
  "compiler": {
    "name": "solc",
    "version": "0.5.16+commit.9c3226ce.Emscripten.clang"
  },
  "schemaVersion": "3.2.3",
  "updatedAt": "2020-10-20T15:34:01.908Z",
  "networkType": "ethereum",
  "devdoc": {
    "methods": {}
  },
  "userdoc": {
    "methods": {}
  }
}