{
  "contractName": "Math",
  "abi": [
    {
      "constant": true,
      "inputs": [
        {
          "internalType": "uint256",
          "name": "a",
          "type": "uint256"
        },
        {
          "internalType": "uint256",
          "name": "b",
          "type": "uint256"
        }
      ],
      "name": "add",
      "outputs": [
        {
          "internalType": "uint256",
          "name": "",
          "type": "uint256"
        }
      ],
      "payable": false,
      "stateMutability": "pure",
      "type": "function"
    },
    {
      "constant": true,
      "inputs": [
        {
          "internalType": "uint256",
          "name": "a",
          "type": "uint256"
        },
        {
          "internalType": "uint256",
          "name": "b",
          "type": "uint256"
        }
      ],
      "name": "sub",
      "outputs": [
        {
          "internalType": "uint256",
          "name": "",
          "type": "uint256"
        }
      ],
      "payable": false,
      "stateMutability": "pure",
      "type": "function"
    }
  ],
  "bytecode": "0x610123610026600b82828239805160001a60731461001957fe5b30600052607381538281f3fe7300000000000000000000000000000000000000003014608060405260043610603d5760003560e01c8063771602f7146042578063b67d77c514608b575b600080fd5b607560048036036040811015605657600080fd5b81019080803590602001909291908035906020019092919050505060d4565b6040518082815260200191505060405180910390f35b60be60048036036040811015609f57600080fd5b81019080803590602001909291908035906020019092919050505060e1565b6040518082815260200191505060405180910390f35b6000818301905092915050565b600081830390509291505056fea265627a7a7231582058e1311f9f70e26293a8b75b804b3f6846de89e6f6bff10c554e759efdd0fee964736f6c63430005100032",
  "source": "pragma solidity >=0.4.22 <0.7.0;\n\nlibrary Math {\n\n    function add(uint a, uint b) pure public returns (uint){\n        return a+b;\n    }\n\n    function sub(uint a, uint b) pure public returns(uint){\n        return a-b;\n    }\n}\n",
  "sourcePath": "/Users/nam/Desktop/ether-basic/contracts/Math.sol",
  "compiler": {
    "name": "solc",
    "version": "0.5.16+commit.9c3226ce.Emscripten.clang"
  },
  "schemaVersion": "3.2.3",
  "updatedAt": "2020-10-20T15:34:01.907Z",
  "networkType": "ethereum",
  "devdoc": {
    "methods": {}
  },
  "userdoc": {
    "methods": {}
  }
}